{
  "contractName": "Locations",
  "abi": [
    {
      "constant": true,
      "inputs": [],
      "name": "locationCount",
      "outputs": [
        {
          "name": "",
          "type": "uint256"
        }
      ],
      "payable": false,
      "stateMutability": "view",
      "type": "function",
      "signature": "0x88703254"
    },
    {
      "constant": true,
      "inputs": [
        {
          "name": "",
          "type": "uint256"
        }
      ],
      "name": "locations",
      "outputs": [
        {
          "name": "name",
          "type": "string"
        }
      ],
      "payable": false,
      "stateMutability": "view",
      "type": "function",
      "signature": "0xb9e0db35"
    },
    {
      "inputs": [],
      "payable": false,
      "stateMutability": "nonpayable",
      "type": "constructor",
      "signature": "constructor"
    },
    {
      "anonymous": false,
      "inputs": [
        {
          "indexed": false,
          "name": "name",
          "type": "string"
        }
      ],
      "name": "LocationCreated",
      "type": "event",
      "signature": "0xd5d3e8c3a95c8f5b3f87fb94766915f90d1f49e9fce0b8c4b3287eed10d1e295"
    },
    {
      "constant": false,
      "inputs": [
        {
          "name": "_name",
          "type": "string"
        }
      ],
      "name": "createLocation",
      "outputs": [],
      "payable": false,
      "stateMutability": "nonpayable",
      "type": "function",
      "signature": "0xd54d66b0"
    }
  ],
  "bytecode": "0x60806040526000805534801561001457600080fd5b5060408051808201909152600b81527f53656174746c652c205741000000000000000000000000000000000000000000602082015261005b906401000000006100ec810204565b60408051808201909152600d81527f4b6973756d752c204b656e79610000000000000000000000000000000000000060208201526100a1906401000000006100ec810204565b60408051808201909152601181527f4c7562756d62617368692c20436f6e676f00000000000000000000000000000060208201526100e7906401000000006100ec810204565b61025c565b6000805460019081018083556040805160208181018352868252928552928252909220815180519293919261012492849201906101c1565b505060408051602080825284518183015284517fd5d3e8c3a95c8f5b3f87fb94766915f90d1f49e9fce0b8c4b3287eed10d1e295945085938392908301919085019080838360005b8381101561018457818101518382015260200161016c565b50505050905090810190601f1680156101b15780820380516001836020036101000a031916815260200191505b509250505060405180910390a150565b828054600181600116156101000203166002900490600052602060002090601f016020900481019282601f1061020257805160ff191683800117855561022f565b8280016001018555821561022f579182015b8281111561022f578251825591602001919060010190610214565b5061023b92915061023f565b5090565b61025991905b8082111561023b5760008155600101610245565b90565b6104148061026b6000396000f3fe6080604052600436106100565763ffffffff7c010000000000000000000000000000000000000000000000000000000060003504166388703254811461005b578063b9e0db3514610082578063d54d66b014610121575b600080fd5b34801561006757600080fd5b506100706101d6565b60408051918252519081900360200190f35b34801561008e57600080fd5b506100ac600480360360208110156100a557600080fd5b50356101dc565b6040805160208082528351818301528351919283929083019185019080838360005b838110156100e65781810151838201526020016100ce565b50505050905090810190601f1680156101135780820380516001836020036101000a031916815260200191505b509250505060405180910390f35b34801561012d57600080fd5b506101d46004803603602081101561014457600080fd5b81019060208101813564010000000081111561015f57600080fd5b82018360208201111561017157600080fd5b8035906020019184600183028401116401000000008311171561019357600080fd5b91908080601f016020809104026020016040519081016040528093929190818152602001838380828437600092019190915250929550610278945050505050565b005b60005481565b60016020818152600092835260409283902080548451600294821615610100026000190190911693909304601f810183900483028401830190945283835292839183018282801561026e5780601f106102435761010080835404028352916020019161026e565b820191906000526020600020905b81548152906001019060200180831161025157829003601f168201915b5050505050905081565b600080546001908101808355604080516020818101835286825292855292825290922081518051929391926102b0928492019061034d565b505060408051602080825284518183015284517fd5d3e8c3a95c8f5b3f87fb94766915f90d1f49e9fce0b8c4b3287eed10d1e295945085938392908301919085019080838360005b838110156103105781810151838201526020016102f8565b50505050905090810190601f16801561033d5780820380516001836020036101000a031916815260200191505b509250505060405180910390a150565b828054600181600116156101000203166002900490600052602060002090601f016020900481019282601f1061038e57805160ff19168380011785556103bb565b828001600101855582156103bb579182015b828111156103bb5782518255916020019190600101906103a0565b506103c79291506103cb565b5090565b6103e591905b808211156103c757600081556001016103d1565b9056fea165627a7a723058201580ae5bf3e03c2b453cfa289db644b06c87279a460f857c97e2a4a2c676efab0029",
  "source": "pragma solidity >=0.4.21 <0.7.0;\r\n\r\ncontract Locations {\r\n    uint public locationCount = 0;\r\n\r\n    struct Location {\r\n        string name;\r\n    }\r\n\r\n    mapping(uint => Location) public locations;\r\n\r\n    constructor() public {\r\n        createLocation(\"Seattle, WA\");\r\n        createLocation(\"Kisumu, Kenya\");\r\n        createLocation(\"Lubumbashi, Congo\");\r\n    }\r\n\r\n    event LocationCreated(\r\n        string name\r\n    );\r\n\r\n    function createLocation(string memory _name) public {\r\n        locationCount++;\r\n        locations[locationCount] = Location(_name);\r\n        emit LocationCreated(_name);\r\n    }\r\n}",
  "sourcePath": "H:/Code/EmergenTech_Hackathon/vaccine_distribution_network/contracts/Locations.sol",
  "compiler": {
    "name": "solc",
    "version": "0.5.0+commit.1d4f565a.Emscripten.clang"
  },
  "schemaVersion": "3.0.1",
  "updatedAt": "2020-02-23T14:59:52.316Z",
  "devdoc": {
    "methods": {}
  },
  "userdoc": {
    "methods": {}
  }
}