{
  "contractName": "VaccineDistribution",
  "abi": [
    {
      "constant": true,
      "inputs": [
        {
          "name": "",
          "type": "uint256"
        }
      ],
      "name": "vaccines",
      "outputs": [
        {
          "name": "barcode",
          "type": "string"
        },
        {
          "name": "name",
          "type": "string"
        },
        {
          "name": "manufacturer",
          "type": "string"
        },
        {
          "name": "locale",
          "type": "string"
        },
        {
          "name": "temp",
          "type": "int256"
        }
      ],
      "payable": false,
      "stateMutability": "view",
      "type": "function",
      "signature": "0x300e88bd"
    },
    {
      "constant": true,
      "inputs": [],
      "name": "vaccineCount",
      "outputs": [
        {
          "name": "",
          "type": "uint256"
        }
      ],
      "payable": false,
      "stateMutability": "view",
      "type": "function",
      "signature": "0xdcb7b1b7"
    },
    {
      "inputs": [],
      "payable": false,
      "stateMutability": "nonpayable",
      "type": "constructor",
      "signature": "constructor"
    },
    {
      "anonymous": false,
      "inputs": [
        {
          "indexed": false,
          "name": "barcode",
          "type": "string"
        },
        {
          "indexed": false,
          "name": "name",
          "type": "string"
        },
        {
          "indexed": false,
          "name": "manufacturer",
          "type": "string"
        },
        {
          "indexed": false,
          "name": "locale",
          "type": "string"
        },
        {
          "indexed": false,
          "name": "temp",
          "type": "int256"
        }
      ],
      "name": "VaccineCreated",
      "type": "event",
      "signature": "0x66607d108c079185600fab1416a7bee6a88f2318884dea9ae4d20e356db36750"
    },
    {
      "anonymous": false,
      "inputs": [
        {
          "indexed": false,
          "name": "barcode",
          "type": "string"
        },
        {
          "indexed": false,
          "name": "name",
          "type": "string"
        },
        {
          "indexed": false,
          "name": "vaccineLocation",
          "type": "string"
        },
        {
          "indexed": false,
          "name": "temp",
          "type": "int256"
        }
      ],
      "name": "VaccineReceived",
      "type": "event",
      "signature": "0xcb01df06dd9db442f4d5969572275a4894bd07e37942272cc35330d688338614"
    },
    {
      "constant": false,
      "inputs": [
        {
          "name": "_barcode",
          "type": "string"
        },
        {
          "name": "_name",
          "type": "string"
        },
        {
          "name": "_manufacturer",
          "type": "string"
        },
        {
          "name": "_locale",
          "type": "string"
        },
        {
          "name": "_temp",
          "type": "int256"
        }
      ],
      "name": "createVaccine",
      "outputs": [],
      "payable": false,
      "stateMutability": "nonpayable",
      "type": "function",
      "signature": "0x2b33fd91"
    },
    {
      "constant": false,
      "inputs": [
        {
          "name": "_id",
          "type": "uint256"
        },
        {
          "name": "_vaccineLocation",
          "type": "string"
        },
        {
          "name": "_temp",
          "type": "int256"
        }
      ],
      "name": "receiveVaccine",
      "outputs": [],
      "payable": false,
      "stateMutability": "nonpayable",
      "type": "function",
      "signature": "0x084fcf2e"
    }
  ],
  "bytecode": "0x6080604052600080553480156200001557600080fd5b50620001096040805190810160405280600881526020017f53464646514a39330000000000000000000000000000000000000000000000008152506040805190810160405280601481526020017f4d616c6172696120496d6d756e697a6174696f6e0000000000000000000000008152506040805190810160405280600481526020017f50415448000000000000000000000000000000000000000000000000000000008152506040805190810160405280600b81526020017f53656174746c652c2057410000000000000000000000000000000000000000008152506003620002f5640100000000026401000000009004565b620001fc6040805190810160405280600881526020017f4a444446443333340000000000000000000000000000000000000000000000008152506040805190810160405280600f81526020017f4d4d522056616363696e6174696f6e00000000000000000000000000000000008152506040805190810160405280600581526020017f4d6572636b0000000000000000000000000000000000000000000000000000008152506040805190810160405280600b81526020017f53656174746c652c2057410000000000000000000000000000000000000000008152506002620002f5640100000000026401000000009004565b620002ef6040805190810160405280600881526020017f44465346453233380000000000000000000000000000000000000000000000008152506040805190810160405280600f81526020017f466c752056616363696e6174696f6e00000000000000000000000000000000008152506040805190810160405280600e81526020017f53616e6f666920506173746575720000000000000000000000000000000000008152506040805190810160405280600b81526020017f53656174746c652c2057410000000000000000000000000000000000000000008152506003620002f5640100000000026401000000009004565b6200063d565b6000805460019081018083556040805160a08101825289815260208082018a9052818301899052606082018890526080820187905292855292825290922081518051929391926200034a928492019062000598565b50602082810151805162000365926001850192019062000598565b50604082015180516200038391600284019160209091019062000598565b5060608201518051620003a191600384019160209091019062000598565b50608082015181600401559050507f66607d108c079185600fab1416a7bee6a88f2318884dea9ae4d20e356db367508585858585604051808060200180602001806020018060200186815260200185810385528a818151815260200191508051906020019080838360005b83811015620004265781810151838201526020016200040c565b50505050905090810190601f168015620004545780820380516001836020036101000a031916815260200191505b5085810384528951815289516020918201918b019080838360005b83811015620004895781810151838201526020016200046f565b50505050905090810190601f168015620004b75780820380516001836020036101000a031916815260200191505b5085810383528851815288516020918201918a019080838360005b83811015620004ec578181015183820152602001620004d2565b50505050905090810190601f1680156200051a5780820380516001836020036101000a031916815260200191505b50858103825287518152875160209182019189019080838360005b838110156200054f57818101518382015260200162000535565b50505050905090810190601f1680156200057d5780820380516001836020036101000a031916815260200191505b50995050505050505050505060405180910390a15050505050565b828054600181600116156101000203166002900490600052602060002090601f016020900481019282601f10620005db57805160ff19168380011785556200060b565b828001600101855582156200060b579182015b828111156200060b578251825591602001919060010190620005ee565b50620006199291506200061d565b5090565b6200063a91905b8082111562000619576000815560010162000624565b90565b610ff4806200064d6000396000f3fe6080604052600436106100615763ffffffff7c0100000000000000000000000000000000000000000000000000000000600035041663084fcf2e81146100665780632b33fd9114610124578063300e88bd1461036e578063dcb7b1b714610549575b600080fd5b34801561007257600080fd5b506101226004803603606081101561008957600080fd5b813591908101906040810160208201356401000000008111156100ab57600080fd5b8201836020820111156100bd57600080fd5b803590602001918460018302840111640100000000831117156100df57600080fd5b91908080601f0160208091040260200160405190810160405280939291908181526020018383808284376000920191909152509295505091359250610570915050565b005b34801561013057600080fd5b50610122600480360360a081101561014757600080fd5b81019060208101813564010000000081111561016257600080fd5b82018360208201111561017457600080fd5b8035906020019184600183028401116401000000008311171561019657600080fd5b91908080601f01602080910402602001604051908101604052809392919081815260200183838082843760009201919091525092959493602081019350359150506401000000008111156101e957600080fd5b8201836020820111156101fb57600080fd5b8035906020019184600183028401116401000000008311171561021d57600080fd5b91908080601f016020809104026020016040519081016040528093929190818152602001838380828437600092019190915250929594936020810193503591505064010000000081111561027057600080fd5b82018360208201111561028257600080fd5b803590602001918460018302840111640100000000831117156102a457600080fd5b91908080601f01602080910402602001604051908101604052809392919081815260200183838082843760009201919091525092959493602081019350359150506401000000008111156102f757600080fd5b82018360208201111561030957600080fd5b8035906020019184600183028401116401000000008311171561032b57600080fd5b91908080601f0160208091040260200160405190810160405280939291908181526020018383808284376000920191909152509295505091359250610a06915050565b34801561037a57600080fd5b506103986004803603602081101561039157600080fd5b5035610c95565b604051808060200180602001806020018060200186815260200185810385528a818151815260200191508051906020019080838360005b838110156103e75781810151838201526020016103cf565b50505050905090810190601f1680156104145780820380516001836020036101000a031916815260200191505b5085810384528951815289516020918201918b019080838360005b8381101561044757818101518382015260200161042f565b50505050905090810190601f1680156104745780820380516001836020036101000a031916815260200191505b5085810383528851815288516020918201918a019080838360005b838110156104a757818101518382015260200161048f565b50505050905090810190601f1680156104d45780820380516001836020036101000a031916815260200191505b50858103825287518152875160209182019189019080838360005b838110156105075781810151838201526020016104ef565b50505050905090810190601f1680156105345780820380516001836020036101000a031916815260200191505b50995050505050505050505060405180910390f35b34801561055557600080fd5b5061055e610ef7565b60408051918252519081900360200190f35b610578610efd565b6000848152600160208181526040928390208351815460029481161561010002600019011693909304601f8101839004909202830160c090810190945260a0830182815292939092849290918491908401828280156106185780601f106105ed57610100808354040283529160200191610618565b820191906000526020600020905b8154815290600101906020018083116105fb57829003601f168201915b50505050508152602001600182018054600181600116156101000203166002900480601f0160208091040260200160405190810160405280929190818152602001828054600181600116156101000203166002900480156106ba5780601f1061068f576101008083540402835291602001916106ba565b820191906000526020600020905b81548152906001019060200180831161069d57829003601f168201915b5050509183525050600282810180546040805160206001841615610100026000190190931694909404601f8101839004830285018301909152808452938101939083018282801561074c5780601f106107215761010080835404028352916020019161074c565b820191906000526020600020905b81548152906001019060200180831161072f57829003601f168201915b505050918352505060038201805460408051602060026001851615610100026000190190941693909304601f81018490048402820184019092528181529382019392918301828280156107e05780601f106107b5576101008083540402835291602001916107e0565b820191906000526020600020905b8154815290600101906020018083116107c357829003601f168201915b505050918352505060049190910154602091820152608082018490526060820185905260008681526001825260409020825180519394508493919261082a92849290910190610f2d565b5060208281015180516108439260018501920190610f2d565b506040820151805161085f916002840191602090910190610f2d565b506060820151805161087b916003840191602090910190610f2d565b50608082015181600401559050507fcb01df06dd9db442f4d5969572275a4894bd07e37942272cc35330d68833861481600001518260200151858560405180806020018060200180602001858152602001848103845288818151815260200191508051906020019080838360005b838110156109015781810151838201526020016108e9565b50505050905090810190601f16801561092e5780820380516001836020036101000a031916815260200191505b50848103835287518152875160209182019189019080838360005b83811015610961578181015183820152602001610949565b50505050905090810190601f16801561098e5780820380516001836020036101000a031916815260200191505b50848103825286518152865160209182019188019080838360005b838110156109c15781810151838201526020016109a9565b50505050905090810190601f1680156109ee5780820380516001836020036101000a031916815260200191505b5097505050505050505060405180910390a150505050565b6000805460019081018083556040805160a08101825289815260208082018a905281830189905260608201889052608082018790529285529282529092208151805192939192610a599284920190610f2d565b506020828101518051610a729260018501920190610f2d565b5060408201518051610a8e916002840191602090910190610f2d565b5060608201518051610aaa916003840191602090910190610f2d565b50608082015181600401559050507f66607d108c079185600fab1416a7bee6a88f2318884dea9ae4d20e356db367508585858585604051808060200180602001806020018060200186815260200185810385528a818151815260200191508051906020019080838360005b83811015610b2d578181015183820152602001610b15565b50505050905090810190601f168015610b5a5780820380516001836020036101000a031916815260200191505b5085810384528951815289516020918201918b019080838360005b83811015610b8d578181015183820152602001610b75565b50505050905090810190601f168015610bba5780820380516001836020036101000a031916815260200191505b5085810383528851815288516020918201918a019080838360005b83811015610bed578181015183820152602001610bd5565b50505050905090810190601f168015610c1a5780820380516001836020036101000a031916815260200191505b50858103825287518152875160209182019189019080838360005b83811015610c4d578181015183820152602001610c35565b50505050905090810190601f168015610c7a5780820380516001836020036101000a031916815260200191505b50995050505050505050505060405180910390a15050505050565b60016020818152600092835260409283902080548451600294821615610100026000190190911693909304601f8101839004830284018301909452838352928391830182828015610d275780601f10610cfc57610100808354040283529160200191610d27565b820191906000526020600020905b815481529060010190602001808311610d0a57829003601f168201915b505050505090806001018054600181600116156101000203166002900480601f016020809104026020016040519081016040528092919081815260200182805460018160011615610100020316600290048015610dc55780601f10610d9a57610100808354040283529160200191610dc5565b820191906000526020600020905b815481529060010190602001808311610da857829003601f168201915b50505060028085018054604080516020601f6000196101006001871615020190941695909504928301859004850281018501909152818152959695945090925090830182828015610e575780601f10610e2c57610100808354040283529160200191610e57565b820191906000526020600020905b815481529060010190602001808311610e3a57829003601f168201915b5050505060038301805460408051602060026001851615610100026000190190941693909304601f8101849004840282018401909252818152949594935090830182828015610ee75780601f10610ebc57610100808354040283529160200191610ee7565b820191906000526020600020905b815481529060010190602001808311610eca57829003601f168201915b5050505050908060040154905085565b60005481565b60a06040519081016040528060608152602001606081526020016060815260200160608152602001600081525090565b828054600181600116156101000203166002900490600052602060002090601f016020900481019282601f10610f6e57805160ff1916838001178555610f9b565b82800160010185558215610f9b579182015b82811115610f9b578251825591602001919060010190610f80565b50610fa7929150610fab565b5090565b610fc591905b80821115610fa75760008155600101610fb1565b9056fea165627a7a7230582050dbbaaa74dfaf4e2790c2ce1c4c375aa2176e220e41b31e81ac5399d30d63ed0029",
  "source": "pragma solidity >=0.4.21 <0.7.0;\r\n\r\ncontract VaccineDistribution {\r\n    uint public vaccineCount = 0;\r\n\r\n    struct Vaccine {\r\n        string barcode;\r\n        string name;\r\n        string manufacturer;\r\n        string locale;\r\n        int temp;\r\n    }\r\n\r\n    mapping(uint => Vaccine) public vaccines;\r\n\r\n    event VaccineCreated(\r\n        string barcode,\r\n        string name,\r\n        string manufacturer,\r\n        string locale,\r\n        int temp\r\n    );\r\n\r\n    event VaccineReceived(\r\n        string barcode,\r\n        string name,\r\n        string vaccineLocation,\r\n        int temp\r\n    );\r\n\r\n    constructor() public {\r\n        createVaccine(\"SFFFQJ93\", \"Malaria Immunization\", \"PATH\", \"Seattle, WA\", 3);\r\n        createVaccine(\"JDDFD334\", \"MMR Vaccination\", \"Merck\", \"Seattle, WA\", 2);\r\n        createVaccine(\"DFSFE238\", \"Flu Vaccination\", \"Sanofi Pasteur\", \"Seattle, WA\", 3);\r\n    }\r\n\r\n    function createVaccine(string memory _barcode, string memory _name, string memory _manufacturer,\r\n    string memory _locale, int  _temp) public {\r\n        vaccineCount++;\r\n        vaccines[vaccineCount] = Vaccine(_barcode, _name, _manufacturer, _locale, _temp);\r\n        emit VaccineCreated(_barcode, _name, _manufacturer, _locale, _temp);\r\n    }\r\n\r\n    function receiveVaccine(uint _id, string memory _vaccineLocation, int _temp) public {\r\n        Vaccine memory _vaccine = vaccines[_id];\r\n        _vaccine.temp = _temp;\r\n        _vaccine.locale = _vaccineLocation;\r\n        vaccines[_id] = _vaccine;\r\n        emit VaccineReceived(_vaccine.barcode, _vaccine.name, _vaccineLocation, _temp);\r\n    }\r\n}",
  "sourcePath": "H:/Code/EmergenTech_Hackathon/vaccine_distribution_network/contracts/VaccineDistribution.sol",
  "compiler": {
    "name": "solc",
    "version": "0.5.0+commit.1d4f565a.Emscripten.clang"
  },
  "schemaVersion": "3.0.1",
  "updatedAt": "2020-02-23T14:59:52.079Z",
  "devdoc": {
    "methods": {}
  },
  "userdoc": {
    "methods": {}
  }
}